:020000040800F2
:100000000050002075150008FD14000805150008B3
:100010000D150008151500081D150008000000004A
:10002000000000000000000000000000251500088E
:1000300031150008000000003D15000849150008B2
:10004000BD150008BD150008BD150008BD15000848
:10005000BD150008BD150008BD150008BD15000838
:10006000BD150008BD150008BD150008BD15000828
:10007000BD150008BD150008BD150008BD15000818
:10008000BD150008BD150008BD150008BD15000808
:10009000BD15000855150008BD150008BD15000860
:1000A000BD150008BD150008BD150008BD150008E8
:1000B000BD150008BD150008BD150008BD150008D8
:1000C000BD150008BD150008BD150008BD150008C8
:1000D000BD150008BD150008BD150008BD150008B8
:1000E000BD150008BD150008BD1500080000000082
:1000F0000000000000000000000000000000000000
:0C01000000000000000000005FF808F1A3
:1001100010B5054C237833B9044B13B10448AFF341
:1001200000800123237010BD0C000020000000009F
:10013000443C000808B5034B1BB103490348AFF327
:10014000008008BD0000000010000020443C0008B2
:1001500081F0004102E000BF83F0004330B54FEA78
:1001600041044FEA430594EA050F08BF90EA020FE5
:100170001FBF54EA000C55EA020C7FEA645C7FEA78
:10018000655C00F0E2804FEA5454D4EB5555B8BF9B
:100190006D420CDD2C4480EA020281EA030382EA0C
:1001A000000083EA010180EA020281EA0303362D9E
:1001B00088BF30BD11F0004F4FEA01314FF4801C71
:1001C0004CEA113102D0404261EB410113F0004F83
:1001D0004FEA03334CEA133302D0524263EB43033A
:1001E00094EA050F00F0A780A4F10104D5F1200ED8
:1001F0000DDB02FA0EFC22FA05F2801841F1000133
:1002000003FA0EF2801843FA05F359410EE0A5F106
:1002100020050EF1200E012A03FA0EFC28BF4CF037
:10022000020C43FA05F3C01851EBE37101F00045ED
:1002300007D54FF0000EDCF1000C7EEB00006EEBFA
:100240000101B1F5801F1BD3B1F5001F0CD3490884
:100250005FEA30004FEA3C0C04F101044FEA4452DB
:1002600012F5800F80F09A80BCF1004F08BF5FEA62
:10027000500C50F1000041EB045141EA050130BD42
:100280005FEA4C0C404141EB0101013C28BFB1F554
:10029000801FE9D291F0000F04BF01460020B1FA9F
:1002A00081F308BF2033A3F10B03B3F120020CDA72
:1002B0000C3208DD02F1140CC2F10C0201FA0CF050
:1002C00021FA02F10CE002F11402D8BFC2F1200CB5
:1002D00001FA02F120FA0CFCDCBF41EA0C0190406B
:1002E000E41AA2BF01EB0451294330BD6FEA0404B4
:1002F0001F3C1CDA0C340EDC04F11404C4F120029F
:1003000020FA04F001FA02F340EA030021FA04F3B0
:1003100045EA030130BDC4F10C04C4F1200220FA07
:1003200002F001FA04F340EA0300294630BD21FA45
:1003300004F0294630BD94F0000F83F4801306BF0B
:1003400081F480110134013D4EE77FEA645C18BFFF
:100350007FEA655C29D094EA050F08BF90EA020F96
:1003600005D054EA000C04BF1946104630BD91EA8E
:10037000030F1EBF0021002030BD5FEA545C05D191
:100380004000494128BF41F0004130BD14F58004D0
:100390003CBF01F5801130BD01F0004545F0FE4144
:1003A00041F470014FF0000030BD7FEA645C1ABF79
:1003B000194610467FEA655C1CBF0B46024650EAB0
:1003C000013406BF52EA033591EA030F41F40021DC
:1003D00030BD00BF90F0000F04BF0021704730B562
:1003E0004FF4806404F132044FF000054FF0000137
:1003F00050E700BF90F0000F04BF0021704730B5F8
:100400004FF4806404F1320410F0004548BF4042CC
:100410004FF000013EE700BF42004FEAE2014FEA21
:1004200031014FEA02701FBF12F07F4393F07F4FFC
:1004300081F06051704732F07F4208BF704793F0FF
:100440007F4F04BF41F40021704730B54FF4607412
:1004500001F0004521F000411CE700BF50EA010215
:1004600008BF704730B54FF000050AE050EA0102BE
:1004700008BF704730B511F0004502D5404261EB2E
:1004800041014FF4806404F132045FEA915C3FF46F
:10049000D8AE4FF003025FEADC0C18BF03325FEA0C
:1004A000DC0C18BF033202EBDC02C2F1200300FABD
:1004B00003FC20FA02F001FA03FE40EA0E0021FAE2
:1004C00002F11444BDE600BF70B54FF0FF0C4CF4D0
:1004D000E06C1CEA11541DBF1CEA135594EA0C0F82
:1004E00095EA0C0F00F0DEF82C4481EA030621EABD
:1004F0004C5123EA4C5350EA013518BF52EA0335F8
:1005000041F4801143F4801338D0A0FB02CE4FF0A9
:100510000005E1FB02E506F00042E0FB03E54FF0D9
:100520000006E1FB03569CF0000F18BF4EF0010ED1
:10053000A4F1FF04B6F5007F64F5407404D25FEACD
:100540004E0E6D4146EB060642EAC62141EA555180
:100550004FEAC52040EA5E504FEACE2EB4F1FD0CC2
:1005600088BFBCF5E06F1ED8BEF1004F08BF5FEA40
:10057000500E50F1000041EB045170BD06F00046F2
:1005800046EA010140EA020081EA0301B4EB5C049F
:10059000C2BFD4EB0C0541EA045170BD41F4801197
:1005A0004FF0000E013C00F3AB8014F1360FDEBFBC
:1005B000002001F0004170BDC4F10004203C35DA98
:1005C0000C341BDC04F11404C4F1200500FA05F31B
:1005D00020FA04F001FA05F240EA020001F00042BC
:1005E00021F0004110EBD37021FA04F642EB060132
:1005F0005EEA430E08BF20EAD37070BDC4F10C045C
:10060000C4F1200500FA04F320FA05F001FA04F21F
:1006100040EA020001F0004110EBD37041F100010B
:100620005EEA430E08BF20EAD37070BDC4F1200516
:1006300000FA05F24EEA020E20FA04F301FA05F27E
:1006400043EA020321FA04F001F0004121FA04F226
:1006500020EA020000EBD3705EEA430E08BF20EAF6
:10066000D37070BD94F0000F0FD101F00046400030
:1006700041EB010111F4801F08BF013CF7D041EAB2
:10068000060195F0000F18BF704703F000465200B6
:1006900043EB030313F4801F08BF013DF7D043EA87
:1006A0000603704794EA0C0F0CEA135518BF95EA3D
:1006B0000C0F0CD050EA410618BF52EA4306D1D1C4
:1006C00081EA030101F000414FF0000070BD50EAE3
:1006D000410606BF1046194652EA430619D094EA6D
:1006E0000C0F02D150EA013613D195EA0C0F05D157
:1006F00052EA03361CBF104619460AD181EA0301AB
:1007000001F0004141F0FE4141F470014FF0000062
:1007100070BD41F0FE4141F4780170BD70B54FF0FD
:10072000FF0C4CF4E06C1CEA11541DBF1CEA13557D
:1007300094EA0C0F95EA0C0F00F0A7F8A4EB05045F
:1007400081EA030E52EA03354FEA013100F0888056
:100750004FEA03334FF0805545EA131343EA12631F
:100760004FEA022245EA111545EA10654FEA0026D4
:100770000EF000419D4208BF964244F1FD0404F58D
:10078000407402D25B084FEA3202B61A65EB0305E9
:100790005B084FEA32024FF480104FF4002CB6EBA6
:1007A000020E75EB030E22BFB61A754640EA0C0026
:1007B0005B084FEA3202B6EB020E75EB030E22BF66
:1007C000B61A754640EA5C005B084FEA3202B6EBA7
:1007D000020E75EB030E22BFB61A754640EA9C0066
:1007E0005B084FEA3202B6EB020E75EB030E22BF36
:1007F000B61A754640EADC0055EA060E18D04FEAF4
:10080000051545EA16754FEA06164FEAC30343EA93
:1008100052734FEAC2025FEA1C1CC0D111F4801F60
:100820000BD141EA00014FF000004FF0004CB6E759
:1008300011F4801F04BF01430020B4F1FD0C88BFF8
:10084000BCF5E06F3FF6AFAEB5EB030C04BFB6EB03
:10085000020C5FEA500C50F1000041EB045170BDF6
:100860000EF0004E4EEA113114EB5C04C2BFD4EB23
:100870000C0541EA045170BD41F480114FF0000EA7
:10088000013C90E645EA060E8DE60CEA135594EA23
:100890000C0F08BF95EA0C0F3FF43BAF94EA0C0F26
:1008A0000AD150EA01347FF434AF95EA0C0F7FF49B
:1008B00025AF104619462CE795EA0C0F06D152EAEF
:1008C00003353FF4FDAE1046194622E750EA4106D3
:1008D00018BF52EA43067FF4C5AE50EA41047FF4E4
:1008E0000DAF52EA43057FF4EBAE12E74A0011D296
:1008F00012F5001211D20DD56FF47873B3EB62527A
:100900000ED44FEAC12343F0004343EA505323FA85
:1009100002F070474FF00000704750EA013002D1FA
:100920004FF0FF3070474FF00000704780B485B043
:1009300000AF0346FB80FB88642B01D96423FB8056
:10094000FB8840F2E73202FB03F3084A82FB031202
:100950005211DB17D31AFB60054B1B68FA685A6308
:1009600000BF1437BD4680BC704700BF1F85EB51E8
:10097000E000002080B485B000AF0346FB80FB8818
:10098000642B01D96423FB80FB8840F2E73202FB31
:1009900003F3084A82FB03125211DB17D31AFB60E0
:1009A000054B1B68FA685A6300BF1437BD4680BC0C
:1009B000704700BF1F85EB515000002080B582B00A
:1009C00000AF0346FB71FB79022B1CD0022B25DC08
:1009D000002B02D0012B0BD020E000220221114875
:1009E00001F046FF002201210E4801F041FF15E011
:1009F000012202210B4801F03BFF0022012109489E
:100A000001F036FF0AE000220221064801F030FF23
:100A100001220121034801F02BFF00BF00BF08376E
:100A2000BD4680BD0008014080B582B000AF0346DE
:100A3000FB71FB79022B1CD0022B25DC002B02D092
:100A4000012B0BD020E000224021114801F010FFC3
:100A5000002220210E4801F00BFF15E00122402169
:100A60000B4801F005FF00222021094801F000FF9A
:100A70000AE000224021064801F0FAFE012220216E
:100A8000034801F0F5FE00BF00BF0837BD4680BD3A
:100A9000000C014080B582B000AF78601B4B1C4A4F
:100AA0000021786801F0E9F80346002B2AD1184BA1
:100AB0001B68012B26D1154B1B785BB2002B06DA85
:100AC000124B1B78A3F58073124A136004E00F4B9E
:100AD0001B781A460F4B1A600C4B5B785BB2002BED
:100AE00006DA0A4B5B78A3F580730B4A136004E0C7
:100AF000064B5B781A46084B1A604FF400510748C2
:100B000001F0CEFE00BF0837BD4680BD4401002085
:100B1000280100204C01002050010020001001405D
:100B200080B500AF404B1B685B6A1A463F4B1A60AA
:100B30003E4B1A683E4B1B68D31A3E4A13603D4B2E
:100B40001B68B3F5004F06DB3A4B1B68A3F58033F7
:100B5000384A13600AE0374B1B6813F5004F05DC79
:100B6000344B1B6803F58033324A1360314B1B68EA
:100B7000002BB8BF5B421846FFF73CFC4FF0000269
:100B80002D4BFFF7A1FC02460B461046194622A347
:100B9000D3E90023FFF7C2FD02460B461046194673
:100BA0004FF00002254BFFF78FFC02460B46104624
:100BB0001946FFF79BFE03469AB2214B1A80204B41
:100BC0001B889BB21846FFF715FC15A3D3E9002339
:100BD000FFF77AFC02460B46104619464FF000021A
:100BE000184BFFF771FC02460B46104619464FF0B2
:100BF0000002124BFFF792FD02460B4610461946C3
:100C0000FFF774FE03469AB20F4B1A80074B1B681E
:100C1000074A136000BF80BD000000000056C340BB
:100C20001F85EB51B81E0940980000205401002098
:100C30005C010020580100200000244000004E40CC
:100C400060010020000021406201002080B58AB0D0
:100C500000AF0346FB8004233B610023FB610023BC
:100C6000BB6101233B62002387F82430FB88DBB2A1
:100C7000FB7307F1080307F10F0207F110010648A3
:100C800000F02CFF0346002B01D000F0B9FA00BFA2
:100C90002837BD4680BD00BF2800002080B58CB03D
:100CA00000AF00F08DFC00F0A1F800F04BFA00F06E
:100CB0009BF900F0EDF900F013F900F0DDF80021E8
:100CC000434802F035FA0021424802F031FA04218B
:100CD000414802F071FB01237B620023BB610023CA
:100CE0007B6120237B600023BB602023FB6000230B
:100CF0003B610023FB6101233B620D23BB623B1D73
:100D00001946364800F0DDFD0221344801F0D6F8DE
:100D10000346002B01D000F073FA304800F09AFE31
:100D20000023FB852E4B1B68002B03D10020FFF70F
:100D300045FE0EE02A4B1B68002B03DD0120FFF768
:100D40003DFE06E0264B1B68002B02DA0220FFF76F
:100D500035FE234B1B68002BB8BF5B429BB2184685
:100D6000FFF7E4FD1F4B1B68002B03D10020FFF7AA
:100D70005BFE0EE01B4B1B68002B03DD0120FFF721
:100D800053FE06E0174B1B68002B02DA0220FFF728
:100D90004BFE144B1B68002BB8BF5B429BB218463E
:100DA000FFF7E8FDFFF7BCFE0F4B1B889BB2FA8DE7
:100DB0009A4208D00C4B1B88FB850B4B1B889BB2BF
:100DC0001846FFF743FF642000F05CFCAAE700BF71
:100DD00050000020E00000209800002028000020A3
:100DE0004C010020500100206201002080B590B02D
:100DF00000AF07F1180328220021184602F0F5FE83
:100E00003B1D00221A605A609A60DA601A61012361
:100E1000BB614FF48033FB6100233B620123BB6263
:100E200002237B634FF48033BB634FF4E013FB6317
:100E300007F11803184601F04DFD0346002B01D0C1
:100E400000F0DEF90F237B600223BB600023FB6010
:100E50004FF480633B6100237B613B1D02211846F8
:100E600001F0BAFF0346002B01D000F0C9F900BF22
:100E70004037BD4680BD000080B500AF164B174A15
:100E80001A60154B10225A60134B00229A60124BC5
:100E90000022DA60104B00221A610F4B00225A61C7
:100EA0000D4B00221A760C4B00225A760A4B002278
:100EB0009A76094B0022DA76074B00221A77064B06
:100EC00000225A77044800F001FC0346002B01D0B1
:100ED00000F096F900BF80BD2800002000640040AB
:100EE00080B592B000AF07F1400300221A605A604B
:100EF00007F1240300221A605A609A60DA601A61CE
:100F00005A619A613B1D20220021184602F06DFEB5
:100F1000334B344A1A60324B47225A60304B00221E
:100F20009A602F4B40F2E732DA602D4B00221A61B3
:100F30002B4B00225A612A4B00229A61284802F06A
:100F4000A7F80346002B01D000F05AF900233B64B8
:100F500000237B6407F140031946214802F096FD07
:100F60000346002B01D000F04BF960237B62002385
:100F7000BB620023FB6200233B6300237B630023EF
:100F8000BB630023FB6307F12403002219461448C6
:100F900002F0A0FA0346002B01D000F031F9002343
:100FA0007B600023BB600023FB6000233B610023C8
:100FB0007B614FF40053BB6100233B623B1D19462C
:100FC000074802F0C1FD0346002B01D000F018F9DC
:100FD000034800F03FFA00BF4837BD4680BD00BF60
:100FE00050000020002C014080B58CB000AF07F10C
:100FF0000C0324220021184602F0F7FD3B1D0022BD
:101000001A605A60214B4FF080421A601F4B002239
:101010005A601E4B00229A601C4B4FF6FF72DA603A
:101020001A4B00221A61194B00229A610323FB60BC
:1010300000233B6101237B610023BB610023FB6133
:1010400000233B6201237B620023BB620023FB621F
:1010500007F10C0319460D4802F00CF90346002B6A
:1010600001D000F0CDF800237B600023BB603B1D66
:101070001946064802F00AFD0346002B01D000F095
:10108000BFF800BF3037BD4680BD00BF98000020CC
:1010900080B58AB000AF07F1200300221A605A60C1
:1010A0003B1D00221A605A609A60DA601A615A6128
:1010B0009A61224B224A1A60204B47225A601F4BEA
:1010C00000229A601D4B40F2E732DA601B4B00228F
:1010D0001A611A4B00229A61184801F0D9FF0346A1
:1010E000002B01D000F08CF800233B6200237B62D0
:1010F00007F120031946114802F0C8FC0346002BF3
:1011000001D000F07DF860237B600023BB600023EA
:10111000FB6000237B613B1D00221946074802F05B
:10112000D9F90346002B01D000F06AF8034800F01B
:1011300091F900BF2837BD4680BD00BFE000002008
:101140000004004080B588B000AF07F11003002212
:101150001A605A609A60DA60264B9B69254A43F010
:1011600020039361234B9B6903F02003FB60FB6822
:10117000204B9B691F4A43F0040393611D4B9B69FD
:1011800003F00403BB60BB681A4B9B69194A43F028
:1011900008039361174B9B6903F008037B607B682E
:1011A00000220321144801F063FB0022612113484F
:1011B00001F05EFB03233B6101237B610023BB61E4
:1011C0000223FB6107F1100319460B4801F0CCF92B
:1011D00061233B6101237B610023BB610223FB612F
:1011E00007F110031946054801F0BEF900BF20378A
:1011F000BD4680BD0010024000080140000C0140C7
:1012000080B400AF72B600BF00BFFDE780B485B008
:1012100000AF154B9B69144A43F001039361124BD5
:101220009B6903F00103BB60BB680F4BDB690E4A8F
:1012300043F08053D3610C4BDB6903F080537B6038
:101240007B680A4B5B68FB60FB6823F0E063FB6034
:10125000FB6843F00073FB60044AFB68536000BF07
:101260001437BD4680BC70470010024000000140AA
:1012700080B588B000AF786007F1100300221A60D3
:101280005A609A60DA607B681B68204A934239D1C1
:101290001F4BDB691E4A43F00073D3611C4BDB69B3
:1012A00003F00073FB60FB68194B9B69184A43F01D
:1012B00004039361164B9B6903F00403BB60BB6896
:1012C0004FF400633B6100237B610023BB6107F1A6
:1012D000100319460F4801F047F94FF480533B6162
:1012E00002237B610323FB6107F1100319460948C0
:1012F00001F03AF900220021152001F0FEF8152036
:1013000001F017F900BF2037BD4680BD00640040E2
:10131000001002400008014080B485B000AF786042
:101320007B681B68124A93420CD1124B9B69114A8D
:1013300043F4006393610F4B9B6903F40063FB600C
:10134000FB6810E07B681B680B4A93420BD1094B8A
:10135000DB69084A43F00203D361064BDB6903F003
:101360000203BB60BB6800BF1437BD4680BC70473A
:10137000002C0140001002400004004080B58AB0FB
:1013800000AF786007F1140300221A605A609A6077
:10139000DA607B681B68B3F1804F4ED1294BDB6963
:1013A000284A43F00103D361264BDB6903F00103B4
:1013B0003B613B69234B9B69224A43F004039361E1
:1013C000204B9B6903F00403FB60FB681D4B9B698A
:1013D0001C4A43F0080393611A4B9B6903F008030E
:1013E000BB60BB684FF400437B610023BB610023FB
:1013F000FB6107F114031946134801F0B5F80823FF
:101400007B610023BB610023FB6107F114031946D4
:101410000E4801F0A9F80E4B5B687B627B6A23F4EF
:1014200040737B627B6A43F0E0637B627B6A43F4D8
:1014300080737B62064A7B6A536000BF2837BD46D3
:1014400080BD00BF0010024000080140000C0140B8
:101450000000014080B588B000AF786007F110034C
:1014600000221A605A609A60DA607B681B681F4A23
:10147000934219D11E4B9B691D4A43F004039361AB
:101480001B4B9B6903F00403FB60FB684FF4807304
:101490003B6102237B610223FB6107F110031946C4
:1014A000144801F061F81CE07B681B68124A934203
:1014B00017D10F4B9B690E4A43F0040393610C4B09
:1014C0009B6903F00403BB60BB6840233B610223BC
:1014D0007B610223FB6107F110031946054801F007
:1014E00043F800BF2037BD4680BD00BF002C01403F
:1014F00000100240000801400004004080B400AF2A
:1015000000BFFDE780B400AF00BFFDE780B400AFCF
:1015100000BFFDE780B400AF00BFFDE780B400AFBF
:1015200000BFFDE780B400AF00BFBD4680BC704780
:1015300080B400AF00BFBD4680BC704780B400AF30
:1015400000BFBD4680BC704780B500AF00F07EF89C
:1015500000BF80BD80B500AF024800F0D4FC00BFE2
:1015600080BD00BF2800002080B400AF00BFBD4692
:1015700080BC7047FFF7F8FF0B480C490C4A00236A
:1015800002E0D458C4500433C4188C42F9D3094A39
:10159000094C002301E013600432A242FBD302F0A5
:1015A0002DFBFFF77BFB7047000000200C000020A4
:1015B000883C00080C00002068010020FEE70000C5
:1015C00080B500AF084B1B68074A43F01003136057
:1015D000032000F087FF0F2000F008F8FFF716FE49
:1015E0000023184680BD00BF0020024080B582B0B5
:1015F00000AF7860124B1A68124B1B7819464FF4F3
:101600007A73B3FBF1F3B2FBF3F3184600F09FFFDC
:101610000346002B01D001230EE07B680F2B0AD874
:10162000002279684FF0FF3000F067FF064A7B68C0
:101630001360002300E0012318460837BD4680BD33
:1016400000000020080000200400002080B400AF4B
:10165000054B1B781A46054B1B681344034A13605D
:1016600000BFBD4680BC7047080000206401002018
:1016700080B400AF024B1B681846BD4680BC704763
:101680006401002080B584B000AF7860FFF7F0FF00
:10169000B8607B68FB60FB68B3F1FF3F05D00A4B85
:1016A0001B781A46FB681344FB6000BFFFF7E0FF9E
:1016B0000246BB68D31AFA689A42F7D800BF00BF47
:1016C0001037BD4680BD00BF0800002080B584B043
:1016D00000AF78607B68002B01D10123EDE07B68CF
:1016E00093F82030DBB2002B02D17868FFF7C0FD01
:1016F0007B681B681A687B681B6842F001021A60ED
:10170000FFF7B6FFF86012E0FFF7B2FF0246FB6892
:10171000D31A0A2B0BD97B685B6A43F400327B68CF
:101720005A627B68052283F820200123C5E07B688C
:101730001B685B6803F00103002BE5D07B681B6826
:101740001A687B681B6822F002021A60FFF790FF9C
:10175000F86012E0FFF78CFF0246FB68D31A0A2BF1
:101760000BD97B685B6A43F400327B685A627B6802
:10177000052283F8202001239FE07B681B685B68BB
:1017800003F00203002BE5D17B681B7E012B08D1FF
:101790007B681B681A687B681B6842F080021A60CD
:1017A00007E07B681B681A687B681B6822F0800270
:1017B0001A607B685B7E012B08D17B681B681A6806
:1017C0007B681B6842F040021A6007E07B681B6878
:1017D0001A687B681B6822F040021A607B689B7E57
:1017E000012B08D17B681B681A687B681B6842F074
:1017F00020021A6007E07B681B681A687B681B6818
:1018000022F020021A607B68DB7E012B08D17B6806
:101810001B681A687B681B6822F010021A6007E0D8
:101820007B681B681A687B681B6842F010021A60AC
:101830007B681B7F012B08D17B681B681A687B685B
:101840001B6842F008021A6007E07B681B681A6890
:101850007B681B6822F008021A607B685B7F012BA3
:1018600008D17B681B681A687B681B6842F0040219
:101870001A6007E07B681B681A687B681B6822F0A7
:1018800004021A607B689A687B68DB681A437B688D
:101890001B691A437B685B6942EA03017B685B68EA
:1018A0005A1E7B681B680A43DA617B6800225A6211
:1018B0007B68012283F82020002318461037BD469C
:1018C00080BD80B487B000AF786039607B681B68EA
:1018D0007B617B6893F82030FB74FB7C012B03D089
:1018E000FB7C022B40F0AA807B69D3F8003243F0E6
:1018F00001027B69C3F800223B685B6903F01F03A8
:10190000012202FA03F3FB607B69D3F81C22FB6817
:10191000DB431A407B69C3F81C223B68DB69002B60
:1019200023D17B69D3F80C22FB68DB431A407B6927
:10193000C3F80C223B68DB6819043B685B689BB208
:101940003A68526919437B69483243F832103B6860
:101950009B6819043B681B689AB23B685B690A4341
:1019600079694833DB000B445A603B68DB69012B23
:1019700022D17B69D3F80C22FB681A437B69C3F838
:101980000C223B681B6819043B685B689BB23A6891
:10199000526919437B69483243F832103B689B68AF
:1019A00019043B68DB689AB23B685B690A43796952
:1019B0004833DB000B445A603B689B69002B09D11C
:1019C0007B69D3F80422FB68DB431A407B69C3F8C8
:1019D000042207E07B69D3F80422FB681A437B6981
:1019E000C3F804223B681B69002B09D17B69D3F83B
:1019F0001422FB68DB431A407B69C3F8142207E01A
:101A00007B69D3F81422FB681A437B69C3F814225C
:101A10003B681B6A012B07D17B69D3F81C22FB684A
:101A20001A437B69C3F81C227B69D3F8003223F088
:101A300001027B69C3F80022002306E07B685B6A31
:101A400043F480227B685A62012318461C37BD4646
:101A500080BC704780B584B000AF78607B6893F835
:101A60002030DBB2012B2ED17B68022283F82020AC
:101A70007B681B681A687B681B6822F001021A6089
:101A8000FFF7F6FDF86012E0FFF7F2FD0246FB6893
:101A9000D31A0A2B0BD97B685B6A43F400327B684C
:101AA0005A627B68052283F82020012312E07B68BC
:101AB0001B685B6803F00103002BE5D17B68002203
:101AC0005A62002306E07B685B6A43F400227B686D
:101AD0005A62012318461037BD4680BD80B489B0D4
:101AE00000AFF860B9607A603B60FB6893F8203023
:101AF000FB77FB681B689B68BB61FB7F012B03D0F6
:101B0000FB7F022B40F0AD80BB6903F08063002BAC
:101B10000AD1BB6903F00063002B05D1BB6903F058
:101B20008053002B00F09580BB691B0E03F003036C
:101B30007B6101227B699A403B681A60BB689B68A5
:101B4000002B0DD1BB681B685A05BB68DB68F968C0
:101B500009681A437B6918331B010B441A600FE0B4
:101B6000BB685B68DA00BB689B681A43BB68DB68CC
:101B7000F96809681A437B6918331B010B441A6022
:101B8000FB681968BB681A697B6918331B010B4431
:101B900004331A60BB681B7D012B11D1FB681A68E6
:101BA0007B6918331B01134404331B68FA681168FE
:101BB00043F480727B6918331B010B4404331A60B1
:101BC0007B6807331B781A067B6806331B781B0477
:101BD0001A437B6805331B781B0213437A6804326F
:101BE00012781046FA68116843EA00027B691B010B
:101BF0000B4403F5C6731A607B6803331B781A061F
:101C00007B6802331B781B041A437B6801331B7803
:101C10001B0213437A6812781046FA68116843EA87
:101C200000027B691B010B4403F5C4731A60FB6857
:101C30001A687B6918331B0113441B68FA68116822
:101C400043F001027B6918331B010B441A60002327
:101C50000EE0FB685B6A43F40012FB685A620123E2
:101C600006E0FB685B6A43F48022FB685A6201234A
:101C700018462437BD4680BC704780B487B000AF9B
:101C8000F860B9607A603B60FB6893F82030FB75C0
:101C9000FB7D012B03D0FB7D022B40F00381BB6851
:101CA000002B0ED1FB681B68DB6803F00303002BDD
:101CB00016D1FB685B6A43F40012FB685A62012389
:101CC000F7E0FB681B681B6903F00303002B07D1D7
:101CD000FB685B6A43F40012FB685A620123E8E088
:101CE000FB681A68BB681B331B0113441B6803F0B5
:101CF00004027B689A607B689B68002B0CD1FB68B0
:101D00001A68BB681B331B0113441B685B0DC3F3CC
:101D10000A027B681A600BE0FB681A68BB681B3319
:101D20001B0113441B68DB0823F060427B685A6088
:101D3000FB681A68BB681B331B0113441B6803F064
:101D400002027B68DA60FB681A68BB681B331B0100
:101D5000134404331B6803F00803002B03D07B6893
:101D600008221A610BE0FB681A68BB681B331B0171
:101D7000134404331B6803F00F027B681A61FB688D
:101D80001A68BB681B331B01134404331B681B0A0E
:101D9000DAB27B689A61FB681A68BB681B331B0167
:101DA000134404331B681B0C9AB27B685A61FB68AE
:101DB0001A68BB681B01134403F5DC731B68DAB2B5
:101DC0003B681A70FB681A68BB681B01134403F573
:101DD000DC731B681A0A3B680133D2B21A70FB68C5
:101DE0001A68BB681B01134403F5DC731B681A0CEB
:101DF0003B680233D2B21A70FB681A68BB681B01D9
:101E0000134403F5DC731B681A0E3B680333D2B22C
:101E10001A70FB681A68BB681B01134403F5DE7374
:101E20001A683B680433D2B21A70FB681A68BB6840
:101E30001B01134403F5DE731B681A0A3B68053364
:101E4000D2B21A70FB681A68BB681B01134403F511
:101E5000DE731B681A0C3B680633D2B21A70FB683B
:101E60001A68BB681B01134403F5DE731B681A0E66
:101E70003B680733D2B21A70BB68002B08D1FB68ED
:101E80001B68DA68FB681B6842F02002DA6007E032
:101E9000FB681B681A69FB681B6842F020021A6124
:101EA000002306E0FB685B6A43F48022FB685A6209
:101EB000012318461C37BD4680BC704780B485B0EE
:101EC00000AF786039607B6893F82030FB73FB7B50
:101ED000012B02D0FB7B022B09D17B681B6859695F
:101EE0007B681B683A680A435A61002306E07B68F6
:101EF0005B6A43F480227B685A62012318461437D8
:101F0000BD4680BC704780B58AB000AF78600023C2
:101F10007B627B681B685B693B627B681B685B68F4
:101F2000FB617B681B689B68BB617B681B68DB6827
:101F30007B617B681B681B693B617B681B689B69D5
:101F4000FB603B6A03F00103002B7CD0BB6903F00C
:101F50000103002B23D07B681B6801229A60BB69B8
:101F600003F00203002B03D0786800F083F916E039
:101F7000BB6903F00403002B04D07B6A43F40063C5
:101F80007B620CE0BB6903F00803002B04D07B6A82
:101F900043F480537B6202E0786800F086F9BB6905
:101FA00003F48073002B24D07B681B684FF480728D
:101FB0009A60BB6903F40073002B03D0786800F0CB
:101FC00062F916E0BB6903F48063002B04D07B6ADE
:101FD00043F400537B620CE0BB6903F40063002B05
:101FE00004D07B6A43F480437B6202E0786800F0AF
:101FF00065F9BB6903F48033002B24D07B681B6830
:102000004FF480329A60BB6903F40033002B03D095
:10201000786800F041F916E0BB6903F48023002BD7
:1020200004D07B6A43F400437B620CE0BB6903F499
:102030000023002B04D07B6A43F480337B6202E0F0
:10204000786800F044F93B6A03F00803002B0CD0D9
:102050007B6903F01003002B07D07B6A43F4007305
:102060007B627B681B681022DA603B6A03F0040322
:10207000002B0BD07B6903F00803002B06D07B6894
:102080001B680822DA60786800F02AF93B6A03F0DE
:102090000203002B09D07B681B68DB6803F0030395
:1020A000002B02D07868FEF7F5FC3B6A03F0400392
:1020B000002B0CD03B6903F01003002B07D07B6A88
:1020C00043F480637B627B681B6810221A613B6A61
:1020D00003F02003002B0BD03B6903F00803002B17
:1020E00006D07B681B6808221A61786800F00AF93C
:1020F0003B6A03F01003002B09D07B681B681B6947
:1021000003F00303002B02D0786800F0F2F83B6A7A
:1021100003F40033002B0BD0FB6903F01003002BFA
:1021200006D07B681B6810225A60786800F0F3F8CC
:102130003B6A03F48033002B0BD0FB6903F00803E8
:10214000002B06D07B681B6808225A60786800F074
:10215000EBF83B6A03F40043002B7BD0FB6903F0F0
:102160000403002B72D03B6A03F48073002B08D069
:10217000FB6803F00103002B03D07B6A43F00103EB
:102180007B623B6A03F40073002B08D0FB6803F00A
:102190000203002B03D07B6A43F002037B623B6A9D
:1021A00003F48063002B08D0FB6803F00403002BCA
:1021B00003D07B6A43F004037B623B6A03F4006351
:1021C000002B43D0FB6803F07003002B3ED0FB686C
:1021D00003F07003602B2BD0602B2ED8502B22D015
:1021E000502B2AD8402B19D0402B26D8302B10D07A
:1021F000302B22D8102B02D0202B05D01DE07B6A7B
:1022000043F008037B6219E07B6A43F010037B62B2
:1022100014E07B6A43F020037B620FE07B6A43F0AB
:1022200040037B620AE07B6A43F080037B6205E047
:102230007B6A43F480737B6200E000BF7B681B68AD
:102240009A697B681B6822F070029A617B681B6840
:1022500004225A607B6A002B08D07B685A6A7B6A2A
:102260001A437B685A62786800F067F800BF283725
:10227000BD4680BD80B483B000AF786000BF0C372E
:10228000BD4680BC704780B483B000AF786000BFAB
:102290000C37BD4680BC704780B483B000AF786017
:1022A00000BF0C37BD4680BC704780B483B000AF20
:1022B000786000BF0C37BD4680BC704780B483B0E7
:1022C00000AF786000BF0C37BD4680BC704780B45B
:1022D00083B000AF786000BF0C37BD4680BC70474C
:1022E00080B483B000AF786000BF0C37BD4680BCBF
:1022F000704780B483B000AF786000BF0C37BD4634
:1023000080BC704780B483B000AF786000BF0C37EA
:10231000BD4680BC704780B483B000AF786000BF1A
:102320000C37BD4680BC704780B483B000AF786086
:1023300000BF0C37BD4680BC704780B483B000AF8F
:10234000786000BF0C37BD4680BC704780B485B054
:1023500000AF78607B6803F00703FB600C4BDB6821
:10236000BB60BA684FF6FF031340BB60FB681A02FC
:10237000BB68134343F0BF6343F40033BB60044ABC
:10238000BB68D36000BF1437BD4680BC704700BF38
:1023900000ED00E080B400AF044BDB681B0A03F0E3
:1023A00007031846BD4680BC704700BF00ED00E043
:1023B00080B483B000AF0346FB7197F90730002B60
:1023C0000BDBFB7903F01F02064997F907305B0925
:1023D000012000FA02F241F8232000BF0C37BD466D
:1023E00080BC704700E100E080B483B000AF0346DA
:1023F0003960FB7197F90730002B0ADB3B68DAB2D2
:102400000C4997F907301201D2B20B4483F800232C
:102410000AE03B68DAB20849FB7903F00F03043B9A
:102420001201D2B20B441A7600BF0C37BD4680BCF5
:10243000704700BF00E100E000ED00E080B489B02B
:1024400000AFF860B9607A60FB6803F00703FB61D6
:10245000FB69C3F10703042B28BF0423BB61FB699D
:102460000433062B02D9FB69033B00E000237B61A8
:102470004FF0FF32BB6902FA03F3DA43BB681A403C
:102480007B699A404FF0FF317B6901FA03F3D9432E
:102490007B680B40134318462437BD4680BC704709
:1024A00080B582B000AF78607B68013BB3F1807F7C
:1024B00001D301230FE00A4A7B68013B53600F21DF
:1024C0004FF0FF30FFF790FF054B00229A60044B5E
:1024D00007221A60002318460837BD4680BD00BF9A
:1024E00010E000E080B582B000AF78607868FFF758
:1024F0002DFF00BF0837BD4680BD80B586B000AF58
:102500000346B9607A60FB7300237B61FFF742FFEB
:1025100078617A68B9687869FFF790FF024697F9A1
:102520000F3011461846FFF75FFF00BF1837BD4652
:1025300080BD80B582B000AF0346FB7197F90730CC
:102540001846FFF735FF00BF0837BD4680BD80B590
:1025500082B000AF78607868FFF7A2FF03461846A4
:102560000837BD4680BD000080B48BB000AF7860F6
:10257000396000237B6200233B6269E101227B6AB0
:1025800002FA03F3FB613B681B68FA691340BB6105
:10259000BA69FB699A4240F058813B685B689A4A85
:1025A00093425ED0984A934275D8984A934258D045
:1025B000964A93426FD8964A934252D0944A934295
:1025C00069D8944A93424CD0924A934263D8924A33
:1025D000934246D0904A93425DD8122B2AD8122BB0
:1025E00059D801A252F823F0632600083D260008BE
:1025F0004F26000891260008972600089726000815
:1026000097260008972600089726000897260008B6
:1026100097260008972600089726000897260008A6
:1026200097260008972600089726000845260008E8
:1026300059260008794A934213D02CE03B68DB68A6
:102640003B6229E03B68DB6804333B6224E03B6883
:10265000DB6808333B621FE03B68DB680C333B629E
:102660001AE03B689B68002B02D104233B6213E015
:102670003B689B68012B05D108233B627B68FA69A4
:102680001A6109E008233B627B68FA695A6103E03A
:1026900000233B6200E000BFBB69FF2B01D87B68D1
:1026A00001E07B6804337B61BB69FF2B02D87B6A46
:1026B0009B0002E07B6A083B9B003B617B691A68D8
:1026C0000F213B6901FA03F3DB431A40396A3B6986
:1026D00001FA03F31A437B691A603B685B6803F0F5
:1026E0008053002B00F0B1804D4B9B694C4A43F066
:1026F000010393614A4B9B6903F00103BB60BB6814
:10270000484A7B6A9B08023352F82330FB607B6A9D
:1027100003F003039B000F2202FA03F3DB43FA6882
:102720001340FB607B68404A934213D07B683F4A6A
:1027300093420DD07B683E4A934207D07B683D4A66
:10274000934201D1032306E0042304E0022302E0C4
:10275000012300E000237A6A02F003029200934012
:10276000FA681343FB602F497B6A9B080233FA68BF
:1027700041F823203B685B6803F48013002B06D0EC
:102780002D4B9A682C49BB6913438B6006E02A4B9A
:102790009A68BB69DB43284913408B603B685B68E0
:1027A00003F40013002B06D0234BDA682249BB69DF
:1027B0001343CB6006E0204BDA68BB69DB431E495C
:1027C0001340CB603B685B6803F40033002B06D0FA
:1027D000194B5A681849BB6913434B6006E0164B06
:1027E0005A68BB69DB43144913404B603B685B6824
:1027F00003F48033002B21D00F4B1A680E49BB69BC
:1028000013430B6021E000BF0000321000003110C4
:102810000000221000002110000012100000111012
:10282000001002400000014000080140000C01407F
:102830000010014000140140000401400B4B1A68D5
:10284000BB69DB43094913400B607B6A01337B6240
:102850003B681A687B6A22FA03F3002B7FF48EAE82
:1028600000BF00BF2C37BD4680BC7047000401404C
:1028700080B483B000AF78600B467B8013467B70DA
:102880007B78002B03D07A887B681A6103E07B8811
:102890001A047B681A6100BF0C37BD4680BC7047C4
:1028A00080B485B000AF78600B467B807B68DB68C6
:1028B000FB607A88FB6813401A04FB68D9437B8865
:1028C0000B401A437B681A6100BF1437BD4680BCB9
:1028D0007047000080B586B000AF78607B68002B41
:1028E00001D1012372E27B681B6803F00103002B16
:1028F00000F08780924B5B6803F00C03042B0CD034
:102900008F4B5B6803F00C03082B12D18C4B5B6878
:1029100003F48033B3F5803F0BD1894B1B6803F47C
:102920000033002B6CD07B685B68002B68D10123DF
:102930004CE27B685B68B3F5803F06D1804B1B6837
:102940007F4A43F4803313602EE07B685B68002B82
:102950000CD17B4B1B687A4A23F480331360784B8D
:102960001B68774A23F4802313601DE07B685B6853
:10297000B3F5A02F0CD1724B1B68714A43F480232E
:1029800013606F4B1B686E4A43F4803313600BE097
:102990006B4B1B686A4A23F480331360684B1B68D7
:1029A000674A23F4802313607B685B68002B13D095
:1029B000FEF75EFE386108E0FEF75AFE02463B690C
:1029C000D31A642B01D9032300E25D4B1B6803F487
:1029D0000033002BF0D014E0FEF74AFE386108E027
:1029E000FEF746FE02463B69D31A642B01D9032346
:1029F000ECE1534B1B6803F40033002BF0D100E0F3
:102A000000BF7B681B6803F00203002B63D04C4BB4
:102A10005B6803F00C03002B0BD0494B5B6803F0A1
:102A20000C03082B1CD1464B5B6803F48033002B4E
:102A300016D1434B1B6803F00203002B05D07B68C3
:102A40001B69012B01D00123C0E13D4B1B6823F022
:102A5000F8027B685B69DB00394913430B603AE09D
:102A60007B681B69002B20D0364B01221A60FEF7D1
:102A7000FFFD386108E0FEF7FBFD02463B69D31A13
:102A8000022B01D90323A1E12D4B1B6803F00203A4
:102A9000002BF0D02A4B1B6823F0F8027B685B699F
:102AA000DB00274913430B6015E0264B00221A6018
:102AB000FEF7DEFD386108E0FEF7DAFD02463B690D
:102AC000D31A022B01D9032380E11D4B1B6803F0AD
:102AD0000203002BF0D17B681B6803F00803002B76
:102AE0003AD07B689B69002B19D0174B01221A60E2
:102AF000FEF7BEFD386108E0FEF7BAFD02463B690D
:102B0000D31A022B01D9032360E10D4B5B6A03F05A
:102B10000203002BF0D0012000F09CFA1CE00A4BCD
:102B200000221A60FEF7A4FD38610FE0FEF7A0FD59
:102B300002463B69D31A022B08D9032346E100BFA2
:102B4000001002400000424280044242924B5B6A05
:102B500003F00203002BE9D17B681B6803F0040338
:102B6000002B00F0A6800023FB758B4BDB6903F084
:102B70008053002B0DD1884BDB69874A43F080538B
:102B8000D361854BDB6903F08053BB60BB680123D5
:102B9000FB75824B1B6803F48073002B18D17F4BAD
:102BA0001B687E4A43F480731360FEF761FD386151
:102BB00008E0FEF75DFD02463B69D31A642B01D99C
:102BC000032303E1754B1B6803F48073002BF0D0E3
:102BD0007B68DB68012B06D16F4B1B6A6E4A43F0A2
:102BE000010313622DE07B68DB68002B0CD16A4B7C
:102BF0001B6A694A23F001031362674B1B6A664A2A
:102C000023F0040313621CE07B68DB68052B0CD106
:102C1000614B1B6A604A43F0040313625E4B1B6AFC
:102C20005D4A43F0010313620BE05B4B1B6A5A4A97
:102C300023F001031362584B1B6A574A23F0040325
:102C400013627B68DB68002B15D0FEF711FD38613D
:102C50000AE0FEF70DFD02463B69D31A41F28832C5
:102C6000934201D90323B1E04B4B1B6A03F00203EB
:102C7000002BEED014E0FEF7FBFC38610AE0FEF713
:102C8000F7FC02463B69D31A41F28832934201D9DC
:102C900003239BE0404B1B6A03F00203002BEED1A1
:102CA000FB7D012B05D13C4BDB693B4A23F0805374
:102CB000D3617B68DB69002B00F08780364B5B6853
:102CC00003F00C03082B61D07B68DB69022B46D133
:102CD000334B00221A60FEF7CBFC386108E0FEF7A8
:102CE000C7FC02463B69D31A022B01D903236DE0CE
:102CF000294B1B6803F00073002BF0D17B681B6A23
:102D0000B3F5803F08D1244B5B6823F400327B6825
:102D10009B68214913434B601F4B5B6823F474127B
:102D20007B68196A7B685B6A0B431B4913434B60E2
:102D30001B4B01221A60FEF79BFC386108E0FEF78E
:102D400097FC02463B69D31A022B01D903233DE0CD
:102D5000114B1B6803F00073002BF0D035E0104BD3
:102D600000221A60FEF784FC386108E0FEF780FC60
:102D700002463B69D31A022B01D9032326E0064BF6
:102D80001B6803F00073002BF0D11EE07B68DB6949
:102D9000012B07D1012319E0001002400070004010
:102DA000600042420B4B5B68FB60FB6803F48032BF
:102DB0007B681B6A9A4206D1FB6803F470127B6839
:102DC0005B6A9A4201D0012300E0002318461837BD
:102DD000BD4680BD0010024080B584B000AF786071
:102DE00039607B68002B01D10123D0E06A4B1B685E
:102DF00003F007033A689A4210D9674B1B6823F027
:102E0000070265493B6813430B60634B1B6803F083
:102E100007033A689A4201D00123B8E07B681B6837
:102E200003F00203002B20D07B681B6803F004032F
:102E3000002B05D0594B5B68584A43F4E06353605C
:102E40007B681B6803F00803002B05D0534B5B68BD
:102E5000524A43F460535360504B5B6823F0F002D6
:102E60007B689B684D4913434B607B681B6803F08C
:102E70000103002B40D07B685B68012B07D1474BD7
:102E80001B6803F40033002B15D101237FE07B681E
:102E90005B68022B07D1414B1B6803F00073002BCA
:102EA00009D1012373E03D4B1B6803F00203002BA3
:102EB00001D101236BE0394B5B6823F003027B688F
:102EC0005B68364913434B60FEF7D2FBF8600AE0BB
:102ED000FEF7CEFB0246FB68D31A41F288329342DA
:102EE00001D9032353E02D4B5B6803F00C027B6890
:102EF0005B689B009A42EBD1274B1B6803F00703EA
:102F00003A689A4210D2244B1B6823F007022249E8
:102F10003B6813430B60204B1B6803F007033A68C0
:102F20009A4201D0012332E07B681B6803F004035E
:102F3000002B08D0194B5B6823F4E0627B68DB68E8
:102F4000164913434B607B681B6803F00803002B92
:102F500009D0124B5B6823F460527B681B69DB006D
:102F60000E4913434B6000F021F802460B4B5B689F
:102F70001B0903F00F030A49CB5C22FA03F3094A49
:102F80001360094B1B681846FEF730FB00231846F8
:102F90001037BD4680BD00BF002002400010024037
:102FA0005C3C0008000000200400002080B487B0D2
:102FB00000AF0023FB600023BB6000237B61002384
:102FC0007B6000233B611E4B5B68FB60FB6803F08A
:102FD0000C03042B02D0082B03D027E0194B3B61D4
:102FE00027E0FB689B0C03F00F03174AD35C7B6060
:102FF000FB6803F48033002B10D0114B5B685B0C33
:1030000003F00103114AD35CBB607B680D4A03FBEC
:1030100002F2BB68B2FBF3F37B6104E07B680C4A0D
:1030200002FB03F37B617B693B6102E0054B3B6183
:1030300000BF3B6918461C37BD4680BC704700BFC7
:103040000010024000127A006C3C00087C3C000832
:1030500000093D0080B485B000AF78600A4B1B6862
:103060000A4AA2FB03235B0A7A6802FB03F3FB60B4
:1030700000BFFB685A1EFA60002BF9D100BF00BFE9
:103080001437BD4680BC704700000020D34D62104D
:1030900080B582B000AF78607B68002B01D101233E
:1030A00041E07B6893F83D30DBB2002B06D17B68B2
:1030B000002283F83C207868FEF72EF97B68022214
:1030C00083F83D207B681A687B68043319461046F4
:1030D00000F0C2FA7B68012283F846207B68012257
:1030E00083F83E207B68012283F83F207B68012221
:1030F00083F840207B68012283F841207B6801220D
:1031000083F842207B68012283F843207B680122F8
:1031100083F844207B68012283F845207B680122E4
:1031200083F83D20002318460837BD4680BD0000C7
:1031300080B584B000AF786039603B68002B09D15E
:103140007B6893F83E30DBB2012B14BF01230023D0
:10315000DBB222E03B68042B09D17B6893F83F3057
:10316000DBB2012B14BF01230023DBB215E03B6867
:10317000082B09D17B6893F84030DBB2012B14BFD8
:1031800001230023DBB208E07B6893F84130DBB217
:10319000012B14BF01230023DBB2002B01D001233C
:1031A0005EE03B68002B04D17B68022283F83E205E
:1031B00013E03B68042B04D17B68022283F83F2094
:1031C0000BE03B68082B04D17B68022283F8402087
:1031D00003E07B68022283F841207B681B680122A0
:1031E0003968184600F02EFC7B681B681E4A934223
:1031F00007D17B681B685A6C7B681B6842F40042ED
:103200005A647B681B68184A93420ED07B681B681F
:10321000B3F1804F09D07B681B68144A934204D0F5
:103220007B681B68124A934211D17B681B689B68BC
:1032300003F00703FB60FB68062B10D07B681B685C
:103240001A687B681B6842F001021A6007E07B681D
:103250001B681A687B681B6842F001021A60002331
:1032600018461037BD4680BD002C014000040040C8
:103270000008004080B586B000AF786039607B6898
:10328000002B01D1012393E07B6893F83D30DBB242
:10329000002B06D17B68002283F83C207868FEF77B
:1032A0006DF87B68022283F83D207B681B689B6871
:1032B0007A68126823F4804323F0070393607B68E5
:1032C0001A687B6804331946104600F0C5F97B681C
:1032D0001B689B687B617B681B689B693B617B68A3
:1032E0001B681B6AFB603B681B687A6913437B6140
:1032F0003B6923F4407323F003033B613B689A6806
:103300003B689B691B0213433A6913433B613B696A
:1033100023F4406323F00C033B613B6923F47043C7
:1033200023F0F0033B613B68DA683B68DB691B0212
:1033300013433A6913433B613B681B691A013B68BD
:103340001B6A1B0313433A6913433B61FB6823F079
:103350002203FB603B685A683B685B691B011343AF
:10336000FA681343FB607B681B687A699A607B6824
:103370001B683A699A617B681B68FA681A627B6805
:10338000012283F846207B68012283F83E207B6877
:10339000012283F83F207B68012283F842207B686A
:1033A000012283F843207B68012283F83D2000231B
:1033B00018461837BD4680BD80B584B000AF786030
:1033C00039607B6893F83E30FB737B6893F83F303D
:1033D000BB737B6893F842307B737B6893F8433010
:1033E0003B733B68002B10D1FB7B012B02D17B7B15
:1033F000012B01D0012369E07B68022283F83E2083
:103400007B68022283F8422031E03B68042B10D114
:10341000BB7B012B02D13B7B012B01D0012355E06B
:103420007B68022283F83F207B68022283F84320D6
:103430001DE0FB7B012B08D1BB7B012B05D17B7BE6
:10344000012B02D13B7B012B01D001233EE07B68A5
:10345000022283F83E207B68022283F83F207B68AB
:10346000022283F842207B68022283F843203B68D3
:10347000002B03D03B68042B08D00FE07B681B684F
:1034800001220021184600F0DDFA16E07B681B6877
:1034900001220421184600F0D5FA0EE07B681B6873
:1034A00001220021184600F0CDFA7B681B6801223A
:1034B0000421184600F0C6FA00BF7B681B681A6832
:1034C0007B681B6842F001021A600023184610371F
:1034D000BD4680BD80B586B000AFF860B9607A6047
:1034E0000023FB75FB6893F83C30012B01D10223CC
:1034F000AEE0FB68012283F83C207B680C2B00F2D5
:103500009F8001A252F823F03D35000841360008A3
:1035100041360008413600087D3500084136000874
:103520004136000841360008BF3500084136000822
:103530004136000841360008FF350008FB681B686B
:10354000B968184600F0F6F8FB681B689A69FB68D2
:103550001B6842F008029A61FB681B689A69FB6865
:103560001B6822F004029A61FB681B689969BB68BA
:103570001A69FB681B680A439A6164E0FB681B6870
:10358000B968184600F03CF9FB681B689A69FB684B
:103590001B6842F400629A61FB681B689A69FB68C9
:1035A0001B6822F480629A61FB681B689969BB689A
:1035B0001B691A02FB681B680A439A6143E0FB68B7
:1035C0001B68B968184600F085F9FB681B68DA6962
:1035D000FB681B6842F00802DA61FB681B68DA6965
:1035E000FB681B6822F00402DA61FB681B68D9697A
:1035F000BB681A69FB681B680A43DA6123E0FB6851
:103600001B68B968184600F0CFF9FB681B68DA69D7
:10361000FB681B6842F40062DA61FB681B68DA69C8
:10362000FB681B6822F48062DA61FB681B68D96959
:10363000BB681B691A02FB681B680A43DA6102E077
:103640000123FB7500BFFB68002283F83C20FB7D53
:1036500018461837BD4680BD80B485B000AF78608D
:1036600039607B681B68FB607B682F4A93420BD0F4
:103670007B68B3F1804F07D07B682C4A934203D01C
:103680007B682B4A934208D1FB6823F07003FB60F0
:103690003B685B68FA681343FB607B68224A93428D
:1036A0000BD07B68B3F1804F07D07B681F4A9342F1
:1036B00003D07B681E4A934208D1FB6823F4407311
:1036C000FB603B68DB68FA681343FB60FB6823F030
:1036D00080023B685B691343FB607B68FA681A6091
:1036E0003B689A687B68DA623B681A687B689A6212
:1036F0007B680D4A934203D13B681A697B681A6361
:103700007B6801225A617B681B6903F00103002B6F
:1037100005D07B681B6923F001027B681A6100BF3A
:103720001437BD4680BC7047002C014000040040A7
:103730000008004080B487B000AF786039607B68D3
:103740001B6A7B617B681B6A23F001027B681A623B
:103750007B685B683B617B689B69FB60FB6823F06F
:103760007003FB60FB6823F00303FB603B681B688E
:10377000FA681343FB607B6923F002037B613B68BB
:103780009B687A6913437B617B681C4A93420CD126
:103790007B6923F008037B613B68DB687A6913432C
:1037A0007B617B6923F004037B617B68134A93424E
:1037B00011D13B6923F480733B613B6923F40073AF
:1037C0003B613B685B693A6913433B613B689B69BA
:1037D0003A6913433B617B683A695A607B68FA68CF
:1037E0009A613B685A687B685A637B687A691A6297
:1037F00000BF1C37BD4680BC704700BF002C014095
:1038000080B487B000AF786039607B681B6A7B61E9
:103810007B681B6A23F010027B681A627B685B6816
:103820003B617B689B69FB60FB6823F4E043FB60C2
:10383000FB6823F44073FB603B681B681B02FA685B
:103840001343FB607B6923F020037B613B689B682B
:103850001B017A6913437B617B681D4A93420DD13A
:103860007B6923F080037B613B68DB681B017A691D
:1038700013437B617B6923F040037B617B68144ABF
:10388000934213D13B6923F480633B613B6923F48A
:1038900000633B613B685B699B003A6913433B6192
:1038A0003B689B699B003A6913433B617B683A69BB
:1038B0005A607B68FA689A613B685A687B689A63C9
:1038C0007B687A691A6200BF1C37BD4680BC7047AE
:1038D000002C014080B487B000AF786039607B680D
:1038E0001B6A7B617B681B6A23F480727B681A62A7
:1038F0007B685B683B617B68DB69FB60FB6823F08E
:103900007003FB60FB6823F00303FB603B681B68EC
:10391000FA681343FB607B6923F400737B613B68A7
:103920009B681B027A6913437B617B681D4A934243
:103930000DD17B6923F400637B613B68DB681B026C
:103940007A6913437B617B6923F480637B617B68C5
:10395000144A934213D13B6923F480533B613B6982
:1039600023F400533B613B685B691B013A691343D5
:103970003B613B689B691B013A6913433B617B6870
:103980003A695A607B68FA68DA613B685A687B6812
:10399000DA637B687A691A6200BF1C37BD4680BC57
:1039A000704700BF002C014080B487B000AF786042
:1039B00039607B681B6A3B617B681B6A23F4805219
:1039C0007B681A627B685B687B617B68DB69FB6094
:1039D000FB6823F4E043FB60FB6823F44073FB6067
:1039E0003B681B681B02FA681343FB603B6923F4C6
:1039F00000533B613B689B681B033A6913433B617F
:103A00007B680F4A934209D17B6923F480437B6131
:103A10003B685B699B017A6913437B617B687A69C8
:103A20005A607B68FA68DA613B685A687B681A6496
:103A30007B683A691A6200BF1C37BD4680BC70477C
:103A4000002C014080B487B000AFF860B9607A60A4
:103A5000BB6803F01F03012202FA03F37B61FB68DA
:103A60001A6A7B69DB431A40FB681A62FB681A6AB0
:103A7000BB6803F01F03796801FA03F31A43FB687C
:103A80001A6200BF1C37BD4680BC704780B485B049
:103A900000AF786039607B6893F83C30012B01D12E
:103AA000022346E07B68012283F83C207B680222E7
:103AB00083F83D207B681B685B68FB607B681B6844
:103AC0009B68BB60FB6823F07003FB603B681B686E
:103AD000FA681343FB607B681B68FA685A607B686E
:103AE0001B68164A93420ED07B681B68B3F1804F67
:103AF00009D07B681B68124A934204D07B681B681C
:103B0000104A93420CD1BB6823F08003BB603B6832
:103B10005B68BA681343BB607B681B68BA689A60CD
:103B20007B68012283F83D207B68002283F83C20DB
:103B3000002318461437BD4680BC7047002C014056
:103B4000000400400008004080B485B000AF7860F9
:103B500039600023FB607B6893F83C30012B01D176
:103B600002233DE07B68012283F83C20FB6823F0C0
:103B7000FF023B68DB681343FB60FB6823F4407281
:103B80003B689B681343FB60FB6823F480623B68DF
:103B90005B681343FB60FB6823F400623B681B68AF
:103BA0001343FB60FB6823F480523B681B6913439B
:103BB000FB60FB6823F400523B685B691343FB60C6
:103BC000FB6823F480423B68DB691343FB607B683E
:103BD0001B68FA685A647B68002283F83C20002343
:103BE00018461437BD4680BC7047034602449342D2
:103BF00000D1704703F8011BF9E7000070B50026FB
:103C00000C4D0D4C641BA410A64209D100F01AF80B
:103C100000260A4D0A4C641BA410A64205D170BDB3
:103C200055F8043B98470136EEE755F8043B9847B2
:103C30000136F2E7803C0008803C0008803C000828
:103C4000843C0008F8B500BFF8BC08BC9E4670472D
:0C3C5000F8B500BFF8BC08BC9E467047E9
:103C5C000000000000000000010203040607080930
:103C6C0002030405060708090A0B0C0D0E0F1010B1
:043C7C000102000041
:043C80003501000802
:043C84001101000822
:0C3C880000127A00100000000100000093
:040000050800157565
:00000001FF
